:020000040800F2
:100000008084002095C700083D0600083F060008D0
:1000100043060008470600084B06000800000000E1
:100020000000000000000000000000004F06000873
:1000300051060008000000003F1C010839C50008F7
:10004000AFC70008AFC70008AFC70008AFC70008B8
:10005000AFC70008AFC70008AFC70008AFC70008A8
:10006000AFC70008AFC70008AFC700082F8000085F
:10007000AFC70008AFC70008AFC70008AFC7000888
:10008000AFC70008AFC70008AFC70008AFC7000878
:10009000AFC70008AFC70008AFC70008AFC7000868
:1000A000AFC70008AFC70008AFC70008AFC7000858
:1000B00069C0000853060008FFBD0008AFC700086C
:1000C000AFC70008AFC70008AFC70008AFC7000838
:1000D000AFC7000803C70008AFC70008AFC70008D4
:1000E000AFC70008AFC70008AFC70008AFC7000818
:1000F000AFC70008AFC70008AFC70008AFC7000808
:10010000AFC70008AFC70008AFC70008AFC70008F7
:10011000AFC70008AFC70008AFC70008AFC70008E7
:10012000AFC70008AFC70008AFC70008AFC70008D7
:10013000DFF80CD012F0ACFA004800478305000845
:10014000808400200024002600250020FE4908802D
:1001500039E0012000F0E1FB0446002C30D0052CF2
:1001600002D1002501261DE0012C0AD1681CC5B270
:10017000062D00DD002501264FF4FA700CF039FA47
:1001800010E0022C01D101260CE0042C0AD0062C30
:1001900008D1681EC5B2002D00DA06250126C82048
:1001A0000CF027FA2946E948006810F001F83146BA
:1001B000E74800680FF0FCFFE648006810F0C8FC54
:1001C00014200CF016FAC4E70EB5002600BF002478
:1001D000002700250020E0490870DB49088075E011
:1001E000DD48007850B90120DB49087011F000FDAE
:1001F000064607F083FC304611F0FEFC012F41D18A
:1002000011F0F6FC064614B908F092F81CE0012C37
:1002100002D108F0ADFE17E0022C02D108F0F1FF88
:1002200012E0032C02D109F0FCFE0DE0042C02D1F7
:1002300007F0A7FD08E0052C02D109F06CFC03E0F3
:10024000062C01D109F02EFA0027C4A01021CDE917
:100250000010C3490988183988B21023C822002128
:1002600005F03AFABFA01021CDE90010BC49098879
:10027000183988B21023C822262105F02DFA3046FD
:1002800011F0BAFC681CC5B2322D08DD0025B64855
:10029000006808B9012000E00020B349086014207C
:1002A0000CF0A7F902AA0021AA48006810F0A1FBEF
:1002B00002AA0A21A64800680FF0BFFEC7B202AA30
:1002C0000A21A24800680FF0B8FEC4B288E70024F3
:1002D000002505E1A548416800208847A34890F81B
:1002E000200000F080000028F3D0A04880899C49BD
:1002F00009888842EDDA9D48C08A99494988884230
:10030000E7DA9A488189964800882238814206DDDA
:100310009648C08A1A2802DA00208F49087093484C
:100320008089B0F5947F0DDD9048C08A242809DDCE
:100330008E48C08A3C2805DA01242146844800689A
:100340000FF036FF89488089142817DD8748808997
:10035000782813DA8548C08A72280FDD8348C08A5E
:100360008A280BDA012501242946784800680FF015
:100370001FFF2146764800680FF01AFF7B488089EE
:10038000142817DD79488089782813DA7748C08ADD
:100390008E280FDD7548C08AA6280BDA02250124B5
:1003A00029466A4800680FF003FF21466848006844
:1003B0000FF0FEFE6D488089142817DD6B48808998
:1003C000782813DA6948C08AAE280FDD6748C08AEA
:1003D000CA280BDA0325012429465C4800680FF07F
:1003E000E7FE21465A4800680FF0E2FE5F48808928
:1003F000142817DD5D488089782813DA5B48C08AA5
:10040000CC280FDD5948C08AEA280BDA00250124E0
:1004100029464E4800680FF0CBFE21464C48006844
:100420000FF0C6FE51488089A02818DD4F4880890A
:10043000B0F5827F13DA4D48C08A72280FDD4B4831
:10044000C08A8A280BDA0625012429463F4800681D
:100450000FF0AEFE21463E4800680FF0A9FE43486B
:100460008089A02818DD41488089B0F5827F13DAA1
:100470003E48C08A8E280FDD3C48C08AA6280BDA89
:10048000052501242946314800680FF091FE2146D8
:100490002F4800680FF08CFE34488089A02818DDB2
:1004A00032488089B0F5827F13DA3048C08AAE289E
:1004B0000FDD2E48C08ACA280BDA042501242946FC
:1004C000224800680FF074FE2146214800680FF0B2
:1004D0006FFE2048006810F03BFB64200CF089F8A8
:1004E000F8E670B50446002500BF00200FF01FFDA0
:1004F0001749086000200FF01AFD14490860002019
:1005000010F0F1F9134908600EF016FF11F070FBBE
:1005100005460623164A0021AFF24D2010F02EFCAE
:100520000423144A0021AFF25F3010F027FC0523AA
:10053000114A0021AFF2F33010F020FC0A2010F035
:100540009DFE28461AE0000052000020080000200E
:10055000040000201000002000000020525354002E
:10056000C01C002046524500A40122425800002031
:100570002C1500202C1B00202C17002011F03CFB18
:1005800070BD0BF0E5FF4FF4A0600CF015F90BF017
:100590002CFF25490868804700F080F94FF4E130CE
:1005A0000CF063F801F054FA00F094F907F056F9F2
:1005B000012001F06EF800201C4908801F2001F086
:1005C00015FA00201A4908601A49C1F8A40107F079
:1005D0006FFE13E01448416801208847124890F8E4
:1005E000200000F0C000402808D10F4890F82000FB
:1005F00020F040000C4981F8200000E0EAE700BF4D
:100600004FF4FA700BF0F5FF05F071FD0EF055FD9B
:100610000A23094A0021AFF2351010F0AFFB0EF0AB
:1006200073FE00BFFEE70000580000200008006CC9
:100630008C012242000022422C130020704700BF90
:10064000FEE700BFFEE700BFFEE700BFFEE7704722
:10065000704710B5012113480EF09CF8124800684D
:10066000401C114908601148006828B11048006812
:10067000401C0F49086002E000200D4908600D4849
:100680000088401C0B490880084600880A2807D1CA
:1006900009480068401C0849086000200549088096
:1006A00010BD000000040040300000204800002081
:1006B0003C00002014000020180000200CB5002091
:1006C000019000906C48006840F480306A490860EE
:1006D00000BF6948006800F4003000900198401C99
:1006E0000190009818B90198B0F5A06FF1D1624857
:1006F000006800F4003010B10120009001E00020FB
:1007000000900098012843D15C48006840F0100038
:100710005A4908600846006820F00300086008464F
:10072000006840F002000860534840685249486041
:100730000846406848600846406840F48060486069
:100740000846406820F47C1048600846406840F441
:10075000E81048600846006840F08070086000BFFC
:100760004548006800F000700028F9D04248406811
:1007700020F00300404948600846406840F002000D
:10078000486000BF3C48406800F00C000828F9D1E0
:100790000CBD10B5FFF792FF10BD10B536480068CC
:1007A00040F0010034490860084640683449084078
:1007B0003149486008460068324908402E490860BF
:1007C0000846006820F4802008600846406820F44D
:1007D000FE0048604FF41F008860FFF7DAFF4FF01B
:1007E00000602949086010BD10B5002100200022DA
:1007F000214B5B6803F00C0121B1042906D00829C4
:1008000028D107E0214B224C236027E01F4B204CCE
:10081000236023E0184B5B6803F47010164B5B6891
:1008200003F48032022303EB904022B9194B434377
:10083000174C23600DE0104B5B6803F4003323B1C9
:10084000144B4343124C236003E0104B4343104CC2
:10085000236003E00D4B0E4C236000BF00BF064B2E
:100860005B68C3F303130C4CE15C094B1B68CB4082
:10087000074C236010BD0000001002400020024021
:100880000000FFF8FFFFF6FE08ED00E000127A001E
:100890001C00002000093D002000002008B50121B7
:1008A00010200CF019FE40F27F20ADF8000010205F
:1008B0008DF8030003208DF80200694604480CF00F
:1008C0004FFB40F27F2102480CF0F7FB08BD00000F
:1008D0000010014008B5012144200CF0FDFD4FF24D
:1008E0004000ADF8000048208DF803006946F94843
:1008F0000CF036FB0120ADF8000028208DF8030035
:100900006946F5480CF02CFB08BDF249083109682E
:10091000C1F3CF2161F01F00704710B5044614B138
:100920000120EE490870ED480078002858D04FF4B7
:100930008051E8480CF0A7FBE0B14FF40051E548C6
:100940000CF0A1FBB0B14FF48041E2480CF09BFBEE
:1009500080B10121E0480CF096FB01280AD04FF449
:100960000041DC480CF08FFB20B14021D9480CF04D
:100970008AFBA0BB0A200BF03CFE0020D749087080
:100980004FF48051D3480CF07EFB08B9012010BD14
:100990004FF40051CF480CF076FB08B90220F6E77F
:1009A0004FF48041CB480CF06EFB08B90320EEE712
:1009B0000121C9480CF067FB012801D10420E6E7BA
:1009C0004FF40041C3480CF05EFB08B90520DEE798
:1009D0004021C0480CF057FB48BB0620D7E7FFE793
:1009E0004FF48051BB480CF04EFB01281FD141034E
:1009F000B8480CF048FB012819D18103B5480CF028
:100A000042FB012813D10121B3480CF03CFB70B923
:100A10004FF40041AF480CF036FB012807D14021CC
:100A2000AC480CF030FB012801D1AC490870002023
:100A3000ADE7704770472DE9FF474FF00F094FF6BC
:100A4000FF7000F0D3FFA6A00C211023C822CDE92F
:100A5000001006210A2004F03FFEA6A00C2110235E
:100A6000C822CDE9001014210A2004F035FEE62347
:100A70000F222121104604F001FCE6234FF49B7263
:100A800019460F2004F0FAFB9DA00C211023282208
:100A9000CDE90010DD211E2004F01EFE99A00C21DE
:100AA00010231E22CDE90010DD21502004F014FE99
:100AB00096A00C2110231E22CDE90010DD218220FA
:100AC00004F00AFE93A00C2110231E22CDE9001091
:100AD000DD21B42004F000FE90A00C2110231E2282
:100AE000CDE90010DD21E62004F0F6FD8DA00C21FB
:100AF00010231E22CDE90010DD214FF48C7004F08C
:100B0000EBFD4FF496700BF074FD00240BE0012117
:100B1000084606F0E9FE844921F8140005200BF090
:100B200068FD601C84B2C82CF1DB002435E07E48EF
:100B300030F814007D4908607B4830F814007C4987
:100B4000086000251DE06019774931F810007749E9
:100B50000968884205DD6019734931F8100073494E
:100B600008606019704931F81000714909688842BD
:100B700005DA60196C4931F810006D490860681C8D
:100B800085B20A2DDFDB6948008869490988401A67
:100B9000654921F81400601C84B2BE2CC7DB002418
:100BA0001BE000250AE060195F4931F81000614937
:100BB000096808445F490860681C85B2052DF2DBAE
:100BC0005C480068052190FBF1F0574921F81400BA
:100BD000002058490860601C84B2BE2CE1DB5248FA
:100BE00000885249086005240DE04F4830F8140091
:100BF0004E490968884204DD4B4830F814004B49DF
:100C00000860601C84B2962CEFDB05241DE0474889
:100C1000006811F01DFB4FF06632474BCDE9000133
:100C200011F027FA074688463F4931F8140011F0C1
:100C300020FB3A464346CDE9020111F099FB02D26E
:100C40003E48046003E0601C84B2962CDFDB00BFEA
:100C50003A4800683A494843C82190FBF1F03949C5
:100C6000086039A010210323C822CDE900100A2111
:100C7000AA2004F031FD10200090324800684200A4
:100C800005230A21D72004F070FC4FF47840304946
:100C90000880002469E009F101001FFA80F9B246DA
:100CA000214931F814104FF4966201FB02F0C1178C
:100CB00000EB11510913C1F582718EB2052E00DAD5
:100CC0000526B6F5877F01DD4FF48776C12C41DD1F
:100CD0004DE00000000C01400008014050000020E1
:100CE000456C656374726F6E696320436F6E7465E3
:100CF00073740000537765657046726500000000EC
:100D0000306B00003230306B000000003430306B4C
:100D1000000000003630306B000000003830306BCF
:100D200000000000316D0000301B0020B0100020DA
:100D3000B4100020AC1000206666E63FD8100020FA
:100D400040420F00CC1000203364423A0000000003
:100D5000520000204A46511C1FFA81F93346514681
:100D6000484604F08BFA601C84B2C72C93DB00BFAA
:100D700000203B490880BDE8FF8710B5FFF7C5FD9F
:100D8000C4433849096884EA0100204036490860B4
:100D9000344804603548006820B9354800680A3096
:100DA000344908603048006810B101202F490860BC
:100DB0002E480068002846D02D4800682D49096853
:100DC000884240D92A48006810F10A0F3BD22548D2
:100DD000006804281AD004DC012807D002282DD18D
:100DE0000CE008281AD0102828D11FE04FF4007119
:100DF00021480CF048F92149086023E04FF4805164
:100E00001D480CF040F91D4908601BE04FF40051EB
:100E100019480CF038F91949086013E04FF4804183
:100E200015480CF030F9154908600BE04FF400410B
:100E300011480CF028F91149086003E000200F491F
:100E4000086000BF00BF0D48006810BD0B48006877
:100E500020B100200549086008490860704700007B
:100E60005200002048000020440000204C000020D8
:100E70003000002040000020000C01403400002021
:100E8000FE4908807047FD49891C08807047FB486F
:100E9000801C00887047F94A1080921C11807047AE
:100EA00010B504462046FFF7EBFF05200BF076FB5C
:100EB000FFF7EDFF10BDF2480089F0490880704748
:100EC000EE49891C0880704730B5014601F01F04C7
:100ED000C1F34513CA0AE50205EB43151544A8B250
:100EE00030BD00BF0100A0F10102D0B2FAD17047BD
:100EF00010B503460C46E248808849F241318842E9
:100F000005D0DF48808845F21031884214D1DC4991
:100F10004889FFF7B5FF1812FFF7B5FFD8B2FFF702
:100F2000B2FFD7498889FFF7ABFF2012FFF7ABFF6D
:100F3000E0B2FFF7A8FF5DE0D148808846F60401E3
:100F400088421DD1CE488079012804D1CC48008840
:100F5000401EC01A83B2CA494889FFF791FF181290
:100F6000FFF791FFD8B2FFF78EFFC5498889FFF7D9
:100F700087FF2012FFF787FFE0B2FFF784FF39E019
:100F8000BF48808845F21051884220D1BC49488929
:100F9000FFF776FF1812FFF776FFB9494989491C18
:100FA00088B2FFF76DFFD8B2FFF76DFFB4498889AB
:100FB000FFF766FF2012FFF766FFB1498989491CD8
:100FC00088B2FFF75DFFE0B2FFF75DFF12E0AC48CB
:100FD0008079012804D1AA480088401EC01A83B233
:100FE000A74948891946FFF756FFA5498889214630
:100FF000FFF751FF10BD2DE9F04105460E460024D4
:101000000027A0469E480088A84203DD9C484088EF
:10101000B04202DC0020BDE8F08131462846FFF7EF
:1010200067FF9748808849F2413188420BD0944845
:10103000808846F60401884205D09148808845F2B0
:101040001031884203D12E20FFF71AFF0DE08C48A3
:10105000808845F21051884204D14FF43850FFF790
:101060000FFF02E02220FFF70BFF8548808849F23E
:101070002031884202D10220FFF733FF7F48801CD5
:10108000008800B100240220FFF72BFF7B48801C62
:1010900004887B48808849F2413188420BD07848E7
:1010A000808845F21031884205D07548808845F225
:1010B000105188420CD10220FFF713FF6F48801CAB
:1010C000B0F80080E7B24FF6FF7000EA072708E0AB
:1010D0006B48808846F60401884202D16748801C2C
:1010E00004886748808849F22531884216D06448D0
:1010F000808844F23551884210D061488088091FA9
:1011000088420BD05E48808848F68911884205D015
:101110005B4880884BF20551884201D120467AE72E
:101120005748808849F2413188420BD05448808822
:1011300045F21031884205D05148808845F210515F
:10114000884207D1E012C002B91240EA411040EAD9
:10115000E82060E72046FFF7B7FE5CE700B54848A7
:10116000808849F2413188420BD04548808846F654
:101170000401884205D04248808845F210318842F7
:1011800003D12920FFF77CFE0FE03D48808845F21F
:101190001051884204D14FF42450FFF771FE04E04F
:1011A00040F273110720FFF776FE00BD00B534480A
:1011B000808849F2413188420BD03148808846F618
:1011C0000401884205D02E48808845F210318842BB
:1011D00003D12820FFF754FE0EE02948808845F20D
:1011E0001051884204D14FF42050FFF749FE03E02C
:1011F00000210720FFF74FFE00BD70B50446002315
:1012000000261F48807901281ED11D48808846F697
:101210000401884218D0082C15D2DFE804F0040637
:10122000080A0C0E101206240DE007240BE004241B
:1012300009E0052407E0012405E0002403E003247D
:1012400001E0022400BF00BF0D48808849F241310F
:10125000884211D00A48808846F6040188420BD0A3
:101260000748808845F21031884205D004488088BC
:1012700045F2105188427CD1082C03E0FE07006C37
:10128000C01C00201CD2DFE804F00406090C0F1279
:10129000151800BF14E043F0800311E043F0400351
:1012A0000EE043F0C0030BE043F0200308E043F0FE
:1012B000600305E043F0A00302E043F0E00300BF59
:1012C00000BFFE48808845F21051884202D14FF499
:1012D000585600E03626F948808845F21031884299
:1012E00007D0F648808845F21051884201D043F07B
:1012F0000803F248808846F60401884201D143F091
:10130000020319463046FFF7C6FD03F0200018B966
:10131000EA48807901280DD1E8480088E7494988E2
:10132000884214DAE54805884088E4490880084680
:1013300045800CE0E1480088E0494988884206DDA4
:10134000DE4805884088DD49088008464580DB483E
:10135000808845F21051884254D1D8494889FFF716
:101360008FFD0020FFF78FFDD4494989491C88B2C1
:1013700000E076E0FFF784FD0020FFF784FDCF4911
:101380004989891C88B2FFF77BFDCC490988491E31
:10139000C1F30F20FFF777FDC8494989C91C88B2FE
:1013A000FFF76EFDC5490978491EC8B2FFF76BFD0E
:1013B000C2498889FFF764FD0020FFF764FDBF493B
:1013C0008989491C88B2FFF75BFD0020FFF75BFDB0
:1013D000BA498989891C88B2FFF752FDB749498803
:1013E000491EC1F30F20FFF74EFDB4498989C91C7E
:1013F00088B2FFF745FDB1498978491EC8B2FFF7A9
:1014000042FD60E0AD494889FFF73AFD0020FFF753
:101410003AFD0020FFF737FDA8490988491EC1F3AE
:101420000F20FFF730FDA5490978491EC8B2FFF724
:101430002AFDA2498889FFF723FD0020FFF723FD3D
:101440000020FFF720FD9D494988491EC1F30F2068
:10145000FFF719FD99498978491EC8B2FFF713FDB6
:1014600031E0082C1CD2DFE804F004070A0D0F124B
:10147000151843F0300313E043F0100310E043F07D
:1014800020030DE000BF0BE043F0380308E043F019
:10149000280305E043F0180302E043F0080300BF0F
:1014A00000BF8648808848F68911884204D11126F9
:1014B00046F24000034302E0032643F480531946FA
:1014C0003046FFF7E8FC70BD30B504460D462946AE
:1014D0002046FFF70DFDFFF7EEFC794800887949BB
:1014E000088030BD2DE9F04306460F4690460024A3
:1014F00045460320A0EB48093CE07A1B91B2321923
:1015000090B2FFF7E1FF3A1B91B2721990B2FFF768
:10151000DBFF3A1991B2721990B2FFF7D5FF7A1931
:1015200091B2321990B2FFF7CFFF7A1991B2321B04
:1015300090B2FFF7C9FF3A1991B2721B90B2FFF750
:10154000C3FF7A1B91B2321B90B2FFF7BDFF3A1B6B
:1015500091B2721B90B2FFF7B7FF641CB9F1000F94
:1015600003DAA000801D814404E0601B80000A3083
:1015700081446D1EAC42C0DDBDE8F08330B503464A
:101580000C4615464D48808849F24131884205D0C5
:101590004A48808845F21031884214D14749488929
:1015A000FFF76EFC1812FFF76EFCD8B2FFF76BFC6A
:1015B00042498889FFF764FC2012FFF764FCE0B21F
:1015C000FFF761FC5DE03D48808845F2105188429C
:1015D00020D13A494889FFF753FC1812FFF753FC12
:1015E00036494989491C88B2FFF74AFCD8B2FFF74F
:1015F0004AFC32498889FFF743FC2012FFF743FC7D
:101600002E498989491C88B2FFF73AFCE0B2FFF7FE
:101610003AFC36E02948808846F6040188421DD10C
:1016200026488079012804D124480088401EC01A29
:1016300083B222494889FFF723FC1812FFF723FCE5
:10164000D8B2FFF720FC1D498889FFF719FC20124A
:10165000FFF719FCE0B2FFF716FC12E0174880799B
:10166000012804D115480088401EC01A83B21349CE
:1016700048891946FFF70FFC104988892146FFF772
:101680000AFC0E4800890F49891E0880881C0580C5
:1016900030BD10B50446002C68D108498871F0208F
:1016A00008804FF4A07048800846808849F2413194
:1016B000884213D00148808806E00000C01C00204A
:1016C000520000200008006C46F60401884205D054
:1016D000FE48808845F2103188421AD12C20FB49FF
:1016E00008812A2048812B2088810846808846F678
:1016F0000401884205D0F548808845F210318842BF
:1017000006D14FF4A070F14908804FF4F070488082
:1017100095E0EE48808848F68911884207D122205A
:10172000EA4908814E2048814F20888187E0E748B8
:10173000808845F21051884210D14FF43050E3496F
:1017400008814FF4285048814FF42C5088814FF481
:10175000F07008804FF44870488070E02220DB4928
:101760000881202048812120888168E00120D74914
:1017700088714FF4A0700880F02048800846808867
:1017800049F24131884205D0D048808845F2103175
:10179000884207D12C20CD4908812A2048812B205E
:1017A000888139E0C948808846F60401884207D11B
:1017B0002C20C64908812B2048812A2088812BE0D3
:1017C000C248808848F68911884207D12220BF4943
:1017D00008814F2048814E2088811DE0BB488088C9
:1017E00045F21051884210D14FF43050B74908816A
:1017F0004FF4285048814FF42C5088814FF44870A2
:1018000008804FF4F070488006E02220AF4908813C
:101810002120488120208881AC48808846F6040138
:10182000884205D0A948808845F21031884206D107
:101830004FF4F070A54908804FF4A0704880002054
:10184000FFF7DBFC10BD2DE9FF4F04460D461646A1
:101850001F46A019401E86B2E819401E87B29B4859
:10186000808849F2413188420BD09848808845F2FF
:101870001031884205D09548808846F60401884298
:1018800020D192494889FFF7FBFA2012FFF7FBFAB3
:10189000E0B2FFF7F8FA3012FFF7F5FAF0B2FFF70F
:1018A000F2FA8A498889FFF7EBFA2812FFF7EBFA78
:1018B000E8B2FFF7E8FA3812FFF7E5FAF8B2FFF7F7
:1018C000E2FA91E08148808845F21051884244D183
:1018D0007E494889FFF7D4FA2012FFF7D4FA7B49F2
:1018E0004989491C88B2FFF7CBFAE0B2FFF7CBFA7F
:1018F00076494989891C88B2FFF7C2FA3012FFF78E
:10190000C2FA72494989C91C88B2FFF7B9FAF0B224
:10191000FFF7B9FA6D498889FFF7B2FA2812FFF785
:10192000B2FA6A498989491C88B2FFF7A9FAE8B274
:10193000FFF7A9FA65498989891C88B2FFF7A0FADF
:101940003812FFF7A0FA61498989C91C88B2FFF7EC
:1019500097FAF8B2FFF797FA46E05C4880790128D9
:101960000ED1A846B94659480088801B401E80B257
:10197000019056480088001B401E80B2009003E092
:10198000A046B146019500975048808848F68911D5
:1019900088420DD14FF0440A4FF0440B48EA092029
:1019A0001FFA80F8C146452003904620029007E0C8
:1019B0004FF0500A4FF0510B5220039053200290E9
:1019C00041465046FFF767FA49465846FFF763FA23
:1019D00001990398FFF75FFA00990298FFF75BFA05
:1019E00029462046FFF784FABDE8FF8F70B504460C
:1019F000002636480588408845433448808846F6A6
:101A00000401884216D131488079012812D1002082
:101A10002E4988712A2048812B2088810021084680
:101A2000FFF766FA0120294988712B2048812A2076
:101A3000888103E000210846FFF75AFAFFF73BFAD6
:101A4000002602E022480480761CAE42FAD370BD24
:101A500000B59FB0012108020BF031FD012140F2D9
:101A600069100BF039FD0120ADF8780010208DF8D9
:101A70007B0003208DF87A001EA916480BF070FA3F
:101A80004CF23370ADF8780018208DF87B000320FD
:101A90008DF87A001EA910480BF062FA4FF680709C
:101AA000ADF8780018208DF87B0003208DF87A00BF
:101AB0001EA90A480BF054FA41F20100ADF8780073
:101AC00018208DF87B0003200AE00000C01C0020D5
:101AD0000008006C000C0140001401400018014097
:101AE0008DF87A001EA9FE480BF03AFA0120089002
:101AF000002009900F200A9000200B900C900D9070
:101B00000E90019002900320039000200490059015
:101B10000690079006200F90002010901190102042
:101B200012900020139015901490169017904FF477
:101B300080501890002019904FF480401A90002097
:101B40001B9008A81C9001A81D900FA80AF0EEFE9B
:101B5000012106200BF052F832200AF04AFD012143
:101B60000020FFF798F932200AF043FD0020FFF72C
:101B700097F9DC49888008468088FF280ADB0846F8
:101B800080884FF6FF71884204D0D6488088B0F52F
:101B9000134F7CD1D320FFF773F9FFF778F9FFF7E4
:101BA00076F9FFF774F9CF498880084680884FF6A8
:101BB000FF7101EA0020CB498880FFF768F9C94925
:101BC00089880843C74988800846808849F241319E
:101BD00088426CD0BF20FFF753F9FFF758F9FFF7A1
:101BE00056F9FFF754F9FFF752F9BE4988800846C5
:101BF00080884FF6FF7101EA0020BA498880FFF71C
:101C000046F9B84989880843B649888008468088DB
:101C100046F6040188424AD0D420FFF731F9FFF795
:101C200036F9FFF734F9FFF732F9AE4988800846F4
:101C300080884FF6FF7101EA0020AA498880FFF7EB
:101C400026F9A84989880843A649888008468088DB
:101C500045F2103188422AD04FF45A40FFF710F96C
:101C6000FFF715F94FF45B40FFF70AF9FFF70FF99B
:101C70009C498880084680884FF6FF7101EA002061
:101C8000984988804FF45C40FFF7FAF800E00EE0D6
:101C9000FFF7FDF8934989880843924988800846F0
:101CA0008088B0F5004F02D145F2105088808D48F1
:101CB00081888DA010F02EFD8A48808849F241313C
:101CC00088427CD1CF20FFF7DBF80020FFF7DBF85C
:101CD000C120FFF7D8F83020FFF7D5F8ED20FFF747
:101CE000CFF86420FFF7CFF80320FFF7CCF81220DD
:101CF000FFF7C9F88120FFF7C6F8E820FFF7C0F822
:101D00008520FFF7C0F81020FFF7BDF87A20FFF715
:101D1000BAF8CB20FFF7B4F83920FFF7B4F82C203D
:101D2000FFF7B1F80020FFF7AEF83420FFF7ABF86B
:101D30000220FFF7A8F8F720FFF7A2F82020FFF70E
:101D4000A2F8EA20FFF79CF80020FFF79CF800209B
:101D5000FFF799F8C020FFF793F81B20FFF793F8DF
:101D6000C120FFF78DF80120FFF78DF8C520FFF7A0
:101D700087F83020FFF787F83020FFF784F8C72076
:101D8000FFF77EF8B720FFF77EF83620FFF778F8E8
:101D90004820FFF778F83A20FFF772F85520FFF750
:101DA00072F8B120FFF76CF80020FFF76CF81A20EA
:101DB000FFF769F8B620FFF763F80A2000E0A6E015
:101DC000FFF761F8A220FFF75EF8F220FFF758F85E
:101DD0000020FFF758F82620FFF752F80120FFF700
:101DE00052F8E020FFF74CF80F20FFF74CF82A20BC
:101DF000FFF749F82820FFF746F80820FFF743F8D7
:101E00000E20FFF740F80820FFF73DF85420FFF7B9
:101E10003AF8A920FFF737F84320FFF734F80A20F3
:101E2000FFF731F80F20FFF72EF80020FFF72BF80F
:101E30000020FFF728F80020FFF725F80020FFF723
:101E400022F8E120FFF71CF80020FFF71CF815200E
:101E5000FFF719F81720FFF716F80720FFF713F818
:101E60001120FFF710F80620FFF70DF82B20FFF7E1
:101E70000AF85620FFF707F83C20FFF704F8052082
:101E8000FFF701F81020FEF7FEFF0F20FEF7FBFF23
:101E90003F20FEF7F8FF3F20FEF7F5FF0F20FEF78B
:101EA000F2FF2B20FEF7ECFF0020FEF7ECFF0020F6
:101EB000FEF7E9FF0120FEF7E6FF3F20FEF7E3FF14
:101EC0002A20FEF7DDFF0020FEF7DDFF0020FEF7F1
:101ED000DAFF0020FEF7D7FFEF20FEF7D4FF0BE07C
:101EE00000200140C01C0020204C43442049443ABB
:101EF00025780D0A000000001120FEF7C1FF7820B0
:101F00000AF077FB2920FEF7BBFF03F020B9FE485B
:101F1000808846F6040188427ED11120FEF7B0FF8A
:101F200014200AF066FBD020FEF7AAFF0720FEF778
:101F3000AAFF4220FEF7A7FF1D20FEF7A4FFD12035
:101F4000FEF79EFF0020FEF79EFF1A20FEF79BFF84
:101F50000920FEF798FFD220FEF792FF0120FEF73E
:101F600092FF2220FEF78FFFC020FEF789FF10208E
:101F7000FEF789FF3B20FEF786FF0020FEF783FF78
:101F80000220FEF780FF1120FEF77DFFC520FEF73F
:101F900077FF0320FEF777FFC820FEF771FF0020D0
:101FA000FEF771FF2520FEF76EFF2120FEF76BFF85
:101FB0000520FEF768FF0020FEF765FF0A20FEF708
:101FC00062FF6520FEF75FFF2520FEF75CFF7720AC
:101FD000FEF759FF5020FEF756FF0F20FEF753FF84
:101FE0000020FEF750FFF820FEF74AFF0120FEF721
:101FF0004AFFFE20FEF744FF0020FEF744FF0220C8
:10200000FEF741FF2020FEF73BFF3620FEF738FFAA
:102010000820FEF738FF00E02AE03A20FEF730FF04
:102020005520FEF730FF2B20FEF72AFF0020FEF799
:102030002AFF0020FEF727FF0120FEF724FF3F20A4
:10204000FEF721FF2A20FEF71BFF0020FEF71BFFF3
:102050000020FEF718FF0120FEF715FFDF20FEF736
:1020600012FF78200AF0C5FA2920FEF709FF4CE795
:10207000A548808845F21031884240F07C87ED20E9
:10208000FEF7FEFE0120FEF7FEFEFE20FEF7FBFE41
:10209000EE20FEF7F5FEDE20FEF7F5FE2120FEF72E
:1020A000F2FEF120FEF7ECFE0120FEF7ECFEDF2051
:1020B000FEF7E6FE1020FEF7E6FEC420FEF7E0FE87
:1020C0008F20FEF7E0FEC620FEF7DAFE0020FEF7C6
:1020D000DAFEE220FEF7D7FEE220FEF7D4FEE22091
:1020E000FEF7D1FEBF20FEF7CBFEAA20FEF7CBFE07
:1020F000B020FEF7C5FE0D20FEF7C5FE0020FEF75E
:10210000C2FE0D20FEF7BFFE0020FEF7BCFE112030
:10211000FEF7B9FE0020FEF7B6FE1920FEF7B3FE6B
:102120000020FEF7B0FE2120FEF7ADFE0020FEF7F6
:10213000AAFE2D20FEF7A7FE0020FEF7A4FE3D20FC
:10214000FEF7A1FE0020FEF79EFE5D20FEF79BFE3F
:102150000020FEF798FE5D20FEF795FE0020FEF7BA
:1021600092FEB120FEF78CFE8020FEF78CFE002050
:10217000FEF789FE8B20FEF786FE0020FEF783FE29
:102180009620FEF780FE0020FEF77DFEB220FEF7CF
:1021900077FE0020FEF777FE0020FEF774FE022097
:1021A000FEF771FE0020FEF76EFE0320FEF76BFEC9
:1021B0000020FEF768FEB320FEF762FE0020FEF767
:1021C00062FE0020FEF75FFE0020FEF75CFE0020AE
:1021D000FEF759FE0020FEF756FE0020FEF753FEE4
:1021E0000020FEF750FE0020FEF74DFE0020FEF717
:1021F0004AFE0020FEF747FE0020FEF744FE0020C6
:10220000FEF741FE0020FEF73EFE0020FEF73BFEFB
:102210000020FEF738FE0020FEF735FE0020FEF716
:1022200032FE0020FEF72FFE0020FEF72CFE0020DD
:10223000FEF729FE0020FEF726FE0020FEF723FE13
:102240000020FEF720FE0020FEF71DFEB420FEF762
:1022500017FE8B20FEF717FE0020FEF714FE9620D7
:10226000FEF711FE0020FEF70EFEA120FEF70BFE8A
:102270000020FEF708FEB520FEF702FE0220FEF762
:1022800002FE0020FEF7FFFD0320FEF7FCFD00200C
:10229000FEF7F9FD0420FEF7F6FD0020FEF7F3FD42
:1022A000B620FEF7EDFD0020FEF7EDFD0020FEF765
:1022B000EAFDB720FEF7E4FD0020FEF7E4FD002074
:1022C000FEF7E1FD3F20FEF7DEFD0020FEF7DBFD1F
:1022D0005E20FEF7D8FD0020FEF7D5FD6420FEF756
:1022E000D2FD0020FEF7CFFD8C20FEF7CCFD0020B4
:1022F000FEF7C9FDAC20FEF7C6FD0020FEF7C3FDCA
:10230000DC20FEF7C0FD01E0C01C00200020FEF72D
:10231000BAFD7020FEF7B7FD0020FEF7B4FD902057
:10232000FEF7B1FD0020FEF7AEFDEB20FEF7ABFDA2
:102330000020FEF7A8FDDC20FEF7A5FD0020FEF73B
:10234000A2FDB820FEF79CFD0020FEF79CFD0020BA
:10235000FEF799FD0020FEF796FD0020FEF793FDA5
:102360000020FEF790FD0020FEF78DFD0020FEF717
:102370008AFD0020FEF787FDBA20FEF781FD2420AC
:10238000FEF781FD0020FEF77EFD0020FEF77BFDBD
:102390000020FEF778FDC120FEF772FD2020FEF739
:1023A00072FD0020FEF76FFD5420FEF76CFD00204B
:1023B000FEF769FDFF20FEF766FD0020FEF763FDD6
:1023C000C220FEF75DFD0A20FEF75DFD0020FEF74E
:1023D0005AFD0420FEF757FD0020FEF754FDC320F0
:1023E000FEF74EFD3C20FEF74EFD0020FEF74BFDB4
:1023F0003A20FEF748FD0020FEF745FD3920FEF7A4
:1024000042FD0020FEF73FFD3720FEF73CFD002097
:10241000FEF739FD3C20FEF736FD0020FEF733FDC8
:102420003620FEF730FD0020FEF72DFD3220FEF7AE
:102430002AFD0020FEF727FD2F20FEF724FD0020B7
:10244000FEF721FD2C20FEF71EFD0020FEF71BFDF0
:102450002920FEF718FD0020FEF715FD2620FEF7C7
:1024600012FD0020FEF70FFD2420FEF70CFD0020DA
:10247000FEF709FD2420FEF706FD0020FEF703FD10
:102480002320FEF700FD0020FEF7FDFC3C20FEF7B8
:10249000FAFC0020FEF7F7FC3620FEF7F4FC0020E3
:1024A000FEF7F1FC3220FEF7EEFC0020FEF7EBFC1D
:1024B0002F20FEF7E8FC0020FEF7E5FC2C20FEF7BD
:1024C000E2FC0020FEF7DFFC2920FEF7DCFC002008
:1024D000FEF7D9FC2620FEF7D6FC0020FEF7D3FC41
:1024E0002420FEF7D0FC0020FEF7CDFC2420FEF7D0
:1024F000CAFC0020FEF7C7FC2320FEF7C4FC002026
:10250000FEF7C1FCC420FEF7BBFC6220FEF7BBFC5B
:102510000020FEF7B8FC0520FEF7B5FC0020FEF712
:10252000B2FC8420FEF7AFFC0020FEF7ACFCF020EC
:10253000FEF7A9FC0020FEF7A6FC1820FEF7A3FC7E
:102540000020FEF7A0FCA420FEF79DFC0020FEF773
:102550009AFC1820FEF797FC0020FEF794FC502010
:10256000FEF791FC0020FEF78EFC0C20FEF78BFCA2
:102570000020FEF788FC1720FEF785FC0020FEF700
:1025800082FC9520FEF77FFC0020FEF77CFCF32008
:10259000FEF779FC0020FEF776FCE620FEF773FCE0
:1025A0000020FEF770FCC520FEF76AFC3220FEF723
:1025B0006AFC0020FEF767FC4420FEF764FC002064
:1025C000FEF761FC6520FEF75EFC0020FEF75BFC79
:1025D0007620FEF758FC0020FEF755FC8820FEF719
:1025E00052FC0020FEF74FFCC620FEF749FC2020DD
:1025F000FEF749FC0020FEF746FC1720FEF743FCDF
:102600000020FEF740FC0120FEF73DFC0020FEF715
:102610003AFCC720FEF734FC0020FEF734FC002013
:10262000FEF731FC0020FEF72EFC0020FEF72BFC0D
:10263000C820FEF725FC0020FEF725FC0020FEF751
:1026400022FC0020FEF71FFC0020FEF71CFCC92026
:10265000FEF716FC0020FEF716FC0020FEF713FC28
:102660000020FEF710FC0020FEF70DFC0020FEF716
:102670000AFC0020FEF707FC0020FEF704FC002007
:10268000FEF701FC0020FEF7FEFB0020FEF7FBFB3F
:102690000020FEF7F8FB0020FEF7F5FB0020FEF718
:1026A000F2FB0020FEF7EFFB0020FEF7ECFB002022
:1026B000FEF7E9FBE020FEF7E3FB1620FEF7E3FB65
:1026C0000020FEF7E0FB1C20FEF7DDFB0020FEF7FC
:1026D000DAFB2120FEF7D7FB0020FEF7D4FB3620E3
:1026E000FEF7D1FB0020FEF7CEFB4620FEF7CBFB2A
:1026F0000020FEF7C8FB5220FEF7C5FB0020FEF7C6
:10270000C2FB6420FEF7BFFB0020FEF7BCFB7A2073
:10271000FEF7B9FB0020FEF7B6FB8B20FEF7B3FBFC
:102720000020FEF7B0FB9920FEF7ADFB0020FEF77E
:10273000AAFBA820FEF7A7FB0020FEF7A4FBB92008
:10274000FEF7A1FB0020FEF79EFBC420FEF79BFBDB
:102750000020FEF798FBCA20FEF795FB0020FEF74D
:1027600092FBD220FEF78FFB0020FEF78CFBD920D6
:10277000FEF789FB0020FEF786FBE020FEF783FBD7
:102780000020FEF780FBF320FEF77DFB0020FEF724
:102790007AFBE120FEF774FB1620FEF774FB0020A5
:1027A000FEF771FB1C20FEF76EFB0020FEF76BFBB3
:1027B0002220FEF768FB0020FEF765FB3620FEF7BF
:1027C00062FB0020FEF75FFB4520FEF75CFB00206C
:1027D000FEF759FB5220FEF756FB0020FEF753FB95
:1027E0006420FEF750FB0020FEF74DFB7A20FEF739
:1027F0004AFB0020FEF747FB8B20FEF744FB00203E
:10280000FEF741FB9920FEF73EFB0020FEF73BFB65
:10281000A820FEF738FB0020FEF735FBB920FEF7B5
:1028200032FB0020FEF72FFBC420FEF72CFB00201C
:10283000FEF729FBCA20FEF726FB0020FEF723FB4C
:10284000D220FEF720FB0020FEF71DFBD820FEF76C
:102850001AFB0020FEF717FBE020FEF714FB002018
:10286000FEF711FBF320FEF70EFB0020FEF70BFB3B
:10287000E220FEF705FB0520FEF705FB0020FEF732
:1028800002FB0B20FEF7FFFA0020FEF7FCFA1B20EC
:10289000FEF7F9FA0020FEF7F6FA3420FEF7F3FA15
:1028A0000020FEF7F0FA4420FEF7EDFA0020FEF7D4
:1028B000EAFA4F20FEF7E7FA0020FEF7E4FA61207B
:1028C000FEF7E1FA0020FEF7DEFA7920FEF7DBFAE8
:1028D0000020FEF7D8FA8820FEF7D5FA0020FEF790
:1028E000D2FA9720FEF7CFFA0020FEF7CCFAA62006
:1028F000FEF7C9FA0020FEF7C6FAB720FEF7C3FAC2
:102900000020FEF7C0FAC220FEF7BDFA0020FEF755
:10291000BAFAC720FEF7B7FA0020FEF7B4FAD120C2
:10292000FEF7B1FA0020FEF7AEFAD620FEF7ABFABA
:102930000020FEF7A8FADD20FEF7A5FA0020FEF73A
:10294000A2FAF320FEF79FFA0020FEF79CFAE3209C
:10295000FEF796FA0520FEF796FA0020FEF793FAA6
:102960000A20FEF790FA0020FEF78DFA1C20FEF7F1
:102970008AFA0020FEF787FA3320FEF784FA002057
:10298000FEF781FA4420FEF77EFA0020FEF77BFA7C
:102990005020FEF778FA0020FEF775FA6220FEF765
:1029A00072FA0020FEF76FFA7820FEF76CFA00202A
:1029B000FEF769FA8820FEF766FA0020FEF763FA50
:1029C0009720FEF760FA0020FEF75DFAA620FEF7DA
:1029D0005AFA0020FEF757FAB720FEF754FA002003
:1029E000FEF751FAC220FEF74EFA0020FEF74BFA2E
:1029F000C720FEF748FA0020FEF745FAD120FEF77F
:102A000042FA0020FEF73FFAD520FEF73CFA0020FC
:102A1000FEF739FADD20FEF736FA0020FEF733FA2A
:102A2000F320FEF730FA0020FEF72DFAE420FEF73F
:102A300027FA0120FEF727FA0020FEF724FA0120EA
:102A4000FEF721FA0020FEF71EFA0220FEF71BFA1D
:102A50000020FEF718FA2A20FEF715FA0020FEF7EC
:102A600012FA3C20FEF70FFA0020FEF70CFA4B207A
:102A7000FEF709FA0020FEF706FA5D20FEF703FADA
:102A80000020FEF700FA7420FEF7FDF90020FEF7A3
:102A9000FAF98420FEF7F7F90020FEF7F4F9932005
:102AA000FEF7F1F90020FEF7EEF9A220FEF7EBF9B0
:102AB0000020FEF7E8F9B320FEF7E5F90020FEF765
:102AC000E2F9BE20FEF7DFF90020FEF7DCF9C420B2
:102AD000FEF7D9F90020FEF7D6F9CD20FEF7D3F99D
:102AE0000020FEF7D0F9D320FEF7CDF90020FEF745
:102AF000CAF9DD20FEF7C7F90020FEF7C4F9F3207C
:102B0000FEF7C1F90020FEF7BEF9E520FEF7B8F99F
:102B10000020FEF7B8F90020FEF7B5F90020FEF717
:102B2000B2F90020FEF7AFF90220FEF7ACF9002061
:102B3000FEF7A9F92920FEF7A6F90020FEF7A3F970
:102B40003C20FEF7A0F90020FEF79DF94B20FEF790
:102B50009AF90020FEF797F95D20FEF794F900201E
:102B6000FEF791F97420FEF78EF90020FEF78BF93D
:102B70008420FEF788F90020FEF785F99320FEF700
:102B800082F90020FEF77FF9A220FEF77CF90020F1
:102B9000FEF779F9B320FEF776F90020FEF773F916
:102BA000BE20FEF770F90020FEF76DF9C420FEF795
:102BB0006AF90020FEF767F9CD20FEF764F90020DE
:102BC000FEF761F9D320FEF75EF90020FEF75BF90E
:102BD000DC20FEF758F90020FEF755F9F320FEF748
:102BE00052F90020FEF74FF9E620FEF749F91120CF
:102BF000FEF749F90020FEF746F93420FEF743F9C5
:102C00000020FEF740F95620FEF73DF90020FEF7C0
:102C10003AF97620FEF737F90020FEF734F97720ED
:102C2000FEF731F90020FEF72EF96620FEF72BF9AA
:102C30000020FEF728F98820FEF725F90020FEF78E
:102C400022F99920FEF71FF90020FEF71CF9BB209E
:102C5000FEF719F90020FEF716F99920FEF713F98F
:102C60000020FEF710F96620FEF70DF90020FEF7B0
:102C70000AF95520FEF707F90020FEF704F9552060
:102C8000FEF701F90020FEF7FEF84520FEF7FBF8FD
:102C90000020FEF7F8F84320FEF7F5F80020FEF7D5
:102CA000F2F84420FEF7EFF80020FEF7ECF8E720FA
:102CB000FEF7E6F83220FEF7E6F80020FEF7E3F82C
:102CC0005520FEF7E0F80020FEF7DDF87620FEF74D
:102CD000DAF80020FEF7D7F86620FEF7D4F80020D7
:102CE000FEF7D1F86720FEF7CEF80020FEF7CBF80C
:102CF0006720FEF7C8F80020FEF7C5F88720FEF72A
:102D0000C2F80020FEF7BFF89920FEF7BCF80020BB
:102D1000FEF7B9F8BB20FEF7B6F80020FEF7B3F8CF
:102D20009920FEF7B0F80020FEF7ADF87720FEF707
:102D3000AAF80020FEF7A7F84420FEF7A4F8002028
:102D4000FEF7A1F85620FEF79EF80020FEF79BF84C
:102D50002320FEF798F80020FEF795F83320FEF7C1
:102D600092F80020FEF78FF84520FEF78CF800203F
:102D7000FEF789F8E820FEF783F80020FEF783F8D5
:102D80000020FEF780F89920FEF77DF80020FEF77E
:102D90007AF88720FEF777F80020FEF774F888208D
:102DA000FEF771F80020FEF76EF87720FEF76BF85B
:102DB0000020FEF768F86620FEF765F80020FEF7B1
:102DC00062F88820FEF75FF80020FEF75CF8AA2082
:102DD000FEF759F80020FEF756F8BB20FEF753F82F
:102DE0000020FEF750F89920FEF74DF80020FEF77E
:102DF0004AF86620FEF747F80020FEF744F8552011
:102E0000FEF741F80020FEF73EF85520FEF73BF8AC
:102E10000020FEF738F84420FEF735F80020FEF7D2
:102E200032F84420FEF72FF80020FEF72CF855204A
:102E3000FEF729F80020FEF726F8E920FEF720F833
:102E4000AA20FEF720F80020FEF71DF80020FEF76C
:102E50001AF80020FEF717F80020FEF711F8AA2054
:102E6000FEF711F8CF20FEF70BF80020FEF70BF865
:102E70000020FEF708F80020FEF705F80020FEF716
:102E800002F80020FDF7FFFF0020FDF7FCFF002007
:102E9000FDF7F9FF0020FDF7F6FF0020FDF7F3FF37
:102EA0000020FDF7F0FF0020FDF7EDFF0020FDF70B
:102EB000EAFF0020FDF7E7FF0020FDF7E4FF002018
:102EC000FDF7E1FF0020FDF7DEFF0020FDF7DBFF4F
:102ED000F020FDF7D5FF0020FDF7D5FF5020FDF7CE
:102EE000D2FF0020FDF7CFFF0020FDF7CCFF002030
:102EF000FDF7C9FFF320FDF7C3FF0020FDF7C3FF77
:102F0000F920FDF7BDFF0620FDF7BDFF1020FDF7FE
:102F1000BAFF2920FDF7B7FF0020FDF7B4FF3A20E4
:102F2000FDF7AEFF5520FDF7AEFF1120FDF7A8FF1E
:102F3000642009F05EFB2920FDF7A2FF3520FDF794
:102F40009FFF0020FDF79FFF5120FDF799FFFF2015
:102F5000FDF799FF5320FDF793FF2C20FDF793FF1A
:102F60005520FDF78DFF8220FDF78DFF2C20FDF70A
:102F700087FF02F0ECB8FE48808845F21051884285
:102F80007ED155214FF47040FDF785FFAA214FF205
:102F90000100FDF780FF52214FF20200FDF77BFF99
:102FA00008214FF20300FDF776FF01214FF20400E4
:102FB000FDF771FF0D214FF43040FDF76CFF0D213F
:102FC0004BF20100FDF767FF0D214BF20200FDF708
:102FD00062FF34214FF43640FDF75DFF34214BF2A0
:102FE0000160FDF758FF34214BF20260FDF753FFFB
:102FF0000D214FF43140FDF74EFF0D214BF2011032
:10300000FDF749FF0D214BF20210FDF744FF34217B
:103010004FF43740FDF73FFF34214BF20170FDF7CD
:103020003AFF34214BF20270FDF735FF00214FF4D7
:103030003240FDF730FF00214BF20120FDF72BFF5E
:1030400000214BF20220FDF726FF24214FF43840E7
:10305000FDF721FF24214BF60100FDF71CFF242181
:103060004BF60200FDF717FF01214FF43F40FDF73B
:1030700012FF0F214FF43340FDF70DFF0F2100E049
:10308000FEE34BF20130FDF706FF0F214BF2023059
:10309000FDF701FF34214FF43940FDF7FCFE3421E8
:1030A0004BF60110FDF7F7FE34214BF60210FDF749
:1030B000F2FE08214FF43540FDF7EDFE08214BF2FA
:1030C0000150FDF7E8FE08214BF20250FDF7E3FE48
:1030D00003214FF44240FDF7DEFE24214FF43A4035
:1030E000FDF7D9FE24214BF60120FDF7D4FE242163
:1030F0004BF60220FDF7CFFE00214FF43C40FDF7D8
:10310000CAFE78214BF60140FDF7C5FE00214BF6C3
:103110000240FDF7C0FE00214FF43D40FDF7BBFE2D
:1031200078214BF60150FDF7B6FE00214BF6025018
:10313000FDF7B1FE00214FF43E40FDF7ACFE6421E7
:103140004BF60160FDF7A7FE00214FF45140FDF75B
:10315000A2FE33214DF20110FDF79DFE00214DF23C
:103160000210FDF798FE34214DF20310FDF793FE97
:1031700000214DF20410FDF78EFE3A214DF20510AC
:10318000FDF789FE00214DF20610FDF784FE4A216D
:103190004DF20710FDF77FFE00214DF20810FDF7FC
:1031A0007AFE5C214DF20910FDF775FE00214DF20B
:1031B0000A10FDF770FE81214DF20B10FDF76BFE3A
:1031C00000214DF20C10FDF766FEA6214DF20D1008
:1031D000FDF761FE00214DF20E10FDF75CFEE521CA
:1031E0004DF20F10FDF757FE01214DF21010FDF7C3
:1031F00052FE13214DF21110FDF74DFE01214DF24B
:103200001210FDF748FE54214DF21310FDF743FE56
:1032100001214DF21410FDF73EFE82214DF21510F2
:10322000FDF739FE01214DF21610FDF734FECA21DB
:103230004DF21710FDF72FFE02214DF21810FDF789
:103240002AFE00214DF21910FDF725FE02214DF254
:103250001A10FDF720FE01214DF21B10FDF71BFE99
:1032600002214DF21C10FDF716FE34214DF21D1007
:10327000FDF711FE02214DF21E10FDF70CFE672135
:103280004DF21F10FDF707FE02214DF22010FDF751
:1032900002FE84214DF22110FDF7FDFD02214DF2C9
:1032A0002210FDF7F8FDA4214DF22310FDF7F3FDE8
:1032B00002214DF22410FDF7EEFDB7214DF225104D
:1032C000FDF7E9FD02214DF22610FDF7E4FDCF21C7
:1032D0004DF22710FDF7DFFD02214DF22810FDF71A
:1032E000DAFDDE214DF22910FDF7D5FD02214DF268
:1032F0002A10FDF7D0FDF2214DF22B10FDF7CBFD8A
:1033000002214DF22C10FDF7C6FDFE214DF22D10CD
:10331000FDF7C1FD03214DF22E10FDF7BCFD10217C
:103320004DF22F10FDF7B7FD03214DF23010FDF7E0
:10333000B2FD33214DF23110FDF7ADFD03214DF209
:103340003210FDF7A8FD6D214DF23310FDF7A3FDFE
:1033500000214FF45240FDF79EFD33214DF2012034
:10336000FDF799FD00214DF20220FDF794FD01E0EB
:10337000C01C002034214DF20320FDF78CFD0021FC
:103380004DF20420FDF787FD3A214DF20520FDF7AF
:1033900082FD00214DF20620FDF77DFD4A214DF210
:1033A0000720FDF778FD00214DF20820FDF773FDA1
:1033B0005C214DF20920FDF76EFD00214DF20A203F
:1033C000FDF769FD81214DF20B20FDF764FD002121
:1033D0004DF20C20FDF75FFDA6214DF20D20FDF70B
:1033E0005AFD00214DF20E20FDF755FDE5214DF26D
:1033F0000F20FDF750FD01214DF21020FDF74BFD90
:1034000013214DF21120FDF746FD01214DF212204E
:10341000FDF741FD54214DF21320FDF73CFD012144
:103420004DF21420FDF737FD82214DF21520FDF7F6
:1034300032FD01214DF21620FDF72DFDCA214DF27E
:103440001720FDF728FD02214DF21820FDF723FD7E
:1034500000214DF21920FDF71EFD02214DF21A2028
:10346000FDF719FD01214DF21B20FDF714FD02218E
:103470004DF21C20FDF70FFD34214DF21D20FDF70C
:103480000AFD02214DF21E20FDF705FD67214DF2D8
:103490001F20FDF700FD02214DF22020FDF7FBFC6F
:1034A00084214DF22120FDF7F6FC02214DF222206D
:1034B000FDF7F1FCA4214DF22320FDF7ECFC0221E5
:1034C0004DF22420FDF7E7FCB7214DF22520FDF752
:1034D000E2FC02214DF22620FDF7DDFCCF214DF26A
:1034E0002720FDF7D8FC02214DF22820FDF7D3FC60
:1034F000DE214DF22920FDF7CEFC02214DF22A20DB
:10350000FDF7C9FCF2214DF22B20FDF7C4FC02218E
:103510004DF22C20FDF7BFFCFE214DF22D20FDF7D2
:10352000BAFC03214DF22E20FDF7B5FC10214DF21F
:103530002F20FDF7B0FC03214DF23020FDF7ABFC4E
:1035400033214DF23120FDF7A6FC03214DF232204C
:10355000FDF7A1FC6D214DF23320FDF79CFC00210D
:103560004FF45340FDF797FC33214DF20130FDF746
:1035700092FC00214DF20230FDF78DFC34214DF21A
:103580000330FDF788FC00214DF20430FDF783FC89
:103590003A214DF20530FDF77EFC00214DF2063058
:1035A000FDF779FC4A214DF20730FDF774FC00214C
:1035B0004DF20830FDF76FFC5C214DF20930FDF74C
:1035C0006AFC00214DF20A30FDF765FC81214DF2C5
:1035D0000B30FDF760FC00214DF20C30FDF75BFC79
:1035E000A6214DF20D30FDF756FC00214DF20E30B4
:1035F000FDF751FCE5214DF20F30FDF74CFC0121A8
:103600004DF21030FDF747FC13214DF21130FDF75C
:1036100042FC01214DF21230FDF73DFC54214DF2E8
:103620001330FDF738FC01214DF21430FDF733FC67
:1036300082214DF21530FDF72EFC01214DF216309E
:10364000FDF729FCCA214DF21730FDF724FC0221B9
:103650004DF21830FDF71FFC00214DF21930FDF737
:103660001AFC02214DF21A30FDF715FC01214DF232
:103670001B30FDF710FC02214DF21C30FDF70BFC56
:1036800034214DF21D30FDF706FC02214DF21E30B3
:10369000FDF701FC67214DF21F30FDF7FCFB022115
:1036A0004DF22030FDF7F7FB84214DF22130FDF77C
:1036B000F2FB02214DF22230FDF7EDFBA4214DF289
:1036C0002330FDF7E8FB02214DF22430FDF7E3FB48
:1036D000B7214DF22530FDF7DEFB02214DF22630F9
:1036E000FDF7D9FBCF214DF22730FDF7D4FB0221A6
:1036F0004DF22830FDF7CFFBDE214DF22930FDF7EA
:10370000CAFB02214DF22A30FDF7C5FBF2214DF232
:103710002B30FDF7C0FB02214DF22C30FDF7BBFB37
:10372000FE214DF22D30FDF7B6FB03214DF22E3078
:10373000FDF7B1FB10214DF22F30FDF7ACFB03215B
:103740004DF23030FDF7A7FB33214DF23130FDF75C
:10375000A2FB03214DF23230FDF79DFB6D214DF2AE
:103760003330FDF798FB00214FF45440FDF793FBF5
:1037700033214DF20140FDF78EFB00214DF2024056
:10378000FDF789FB34214DF20340FDF784FB002156
:103790004DF20440FDF77FFB3A214DF20540FDF765
:1037A0007AFB00214DF20640FDF775FB4A214DF2F0
:1037B0000740FDF770FB00214DF20840FDF76BFB61
:1037C0005C214DF20940FDF766FB00214DF20A40F5
:1037D000FDF761FB81214DF20B40FDF75CFB002101
:1037E0004DF20C40FDF757FBA6214DF20D40FDF7C1
:1037F00052FB00214DF20E40FDF74DFBE5214DF24D
:103800000F40FDF748FB01214DF21040FDF743FB4F
:1038100013214DF21140FDF73EFB01214DF2124004
:10382000FDF739FB54214DF21340FDF734FB012124
:103830004DF21440FDF72FFB82214DF21540FDF7AC
:103840002AFB01214DF21640FDF725FBCA214DF25E
:103850001740FDF720FB02214DF21840FDF71BFB3E
:1038600000214DF21940FDF716FB02214DF21A40DE
:10387000FDF711FB01214DF21B40FDF70CFB00E0B1
:1038800004E302214DF21C40FDF705FB34214DF20B
:103890001D40FDF700FB02214DF21E40FDF7FBFA33
:1038A00067214DF21F40FDF7F6FA02214DF220404C
:1038B000FDF7F1FA84214DF22140FDF7ECFA0221E7
:1038C0004DF22240FDF7E7FAA4214DF22340FDF727
:1038D000E2FA02214DF22440FDF7DDFAB7214DF264
:1038E0002540FDF7D8FA02214DF22640FDF7D3FA24
:1038F000CF214DF22740FDF7CEFA02214DF22840AC
:10390000FDF7C9FADE214DF22940FDF7C4FA022184
:103910004DF22A40FDF7BFFAF2214DF22B40FDF7A0
:10392000BAFA02214DF22C40FDF7B5FAFE214DF214
:103930002D40FDF7B0FA03214DF22E40FDF7ABFA12
:1039400010214DF22F40FDF7A6FA03214DF2304031
:10395000FDF7A1FA33214DF23140FDF79CFA032126
:103960004DF23240FDF797FA6D214DF23340FDF7ED
:1039700092FA00214FF45540FDF78DFA33214DF2B4
:103980000150FDF788FA00214DF20250FDF783FA4D
:1039900034214DF20350FDF77EFA00214DF2045020
:1039A000FDF779FA3A214DF20550FDF774FA00213E
:1039B0004DF20650FDF76FFA4A214DF20750FDF720
:1039C0006AFA00214DF20850FDF765FA5C214DF2CC
:1039D0000950FDF760FA00214DF20A50FDF75BFA3D
:1039E00081214DF20B50FDF756FA00214DF20C509B
:1039F000FDF751FAA6214DF20D50FDF74CFA0021CA
:103A00004DF20E50FDF747FAE5214DF20F50FDF74C
:103A100042FA01214DF21050FDF73DFA13214DF20B
:103A20001150FDF738FA01214DF21250FDF733FA2B
:103A300054214DF21350FDF72EFA01214DF214508E
:103A4000FDF729FA82214DF21550FDF724FA0121E4
:103A50004DF21650FDF71FFACA214DF21750FDF72F
:103A60001AFA02214DF21850FDF715FA00214DF215
:103A70001950FDF710FA02214DF21A50FDF70BFA1A
:103A800001214DF21B50FDF706FA02214DF21C50A8
:103A9000FDF701FA34214DF21D50FDF7FCF902212A
:103AA0004DF21E50FDF7F7F967214DF21F50FDF75B
:103AB000F2F902214DF22050FDF7EDF984214DF28B
:103AC0002150FDF7E8F902214DF22250FDF7E3F90C
:103AD000A4214DF22350FDF7DEF902214DF22450CE
:103AE000FDF7D9F9B7214DF22550FDF7D4F90221A0
:103AF0004DF22650FDF7CFF9CF214DF22750FDF7BB
:103B0000CAF902214DF22850FDF7C5F9DE214DF228
:103B10002950FDF7C0F902214DF22A50FDF7BBF9FB
:103B2000F2214DF22B50FDF7B6F902214DF22C5047
:103B3000FDF7B1F9FE214DF22D50FDF7ACF903214F
:103B40004DF22E50FDF7A7F910214DF22F50FDF741
:103B5000A2F903214DF23050FDF79DF933214DF2CA
:103B60003150FDF798F903214DF23250FDF793F9EA
:103B70006D214DF23350FDF78EF900214FF4564080
:103B8000FDF789F933214DF20160FDF784F9002139
:103B90004DF20260FDF77FF934214DF20360FDF72D
:103BA0007AF900214DF20460FDF775F93A214DF2E2
:103BB0000560FDF770F900214DF20660FDF76BF925
:103BC0004A214DF20760FDF766F900214DF20860C9
:103BD000FDF761F95C214DF20960FDF75CF9002108
:103BE0004DF20A60FDF757F981214DF20B60FDF7A8
:103BF00052F900214DF20C60FDF74DF9A6214DF26E
:103C00000D60FDF748F900214DF20E60FDF743F914
:103C1000E5214DF20F60FDF73EF901214DF21060F4
:103C2000FDF739F913214DF21160FDF734F9012147
:103C30004DF21260FDF72FF954214DF21360FDF79C
:103C40002AF901214DF21460FDF725F982214DF288
:103C50001560FDF720F901214DF21660FDF71BF903
:103C6000CA214DF21760FDF716F902214DF21860D6
:103C7000FDF711F900214DF21960FDF70CF9022151
:103C80004DF21A60FDF707F901214DF21B60FDF7B7
:103C900002F902214DF21C60FDF7FDF834214DF2CE
:103CA0001D60FDF7F8F802214DF21E60FDF7F3F8F4
:103CB00067214DF21F60FDF7EEF802214DF2206002
:103CC000FDF7E9F884214DF22160FDF7E4F80221C7
:103CD0004DF22260FDF7DFF8A4214DF22360FDF7DD
:103CE000DAF802214DF22460FDF7D5F8B7214DF244
:103CF0002560FDF7D0F802214DF22660FDF7CBF8E4
:103D0000CF214DF22760FDF7C6F802214DF2286061
:103D1000FDF7C1F8DE214DF22960FDF7BCF8022164
:103D20004DF22A60FDF7B7F8F2214DF22B60FDF756
:103D3000B2F802214DF22C60FDF7ADF8FE214DF2F4
:103D40002D60FDF7A8F803214DF22E60FDF7A3F8D2
:103D500010214DF22F60FDF79EF803214DF23060E7
:103D6000FDF799F833214DF23160FDF794F8032106
:103D70004DF23260FDF78FF86D214DF23360FDF7A3
:103D80008AF855214FF47040FDF785F8AA214FF2CB
:103D90000100FDF780F852214FF20200FDF77BF899
:103DA00008214FF20300FDF776F800214FF20400DE
:103DB000FDF771F8CC214FF43140FDF76CF800218C
:103DC0004BF20110FDF767F805214FF43640FDF77F
:103DD00062F870214FF43740FDF75DF870214BF227
:103DE0000170FDF758F801214FF43840FDF753F802
:103DF00003214BF60100FDF74EF803214BF60200BC
:103E0000FDF749F803214BF60300FDF744F80221C2
:103E10004FF43C40FDF73FF800214BF60140FDF721
:103E20003AF800214BF60240FDF735F8D0214FF467
:103E30004940FDF730F802214CF60110FDF72BF850
:103E400050214CF60210FDF726F850214CF60310D5
:103E5000FDF721F850214CF60410FDF71CF8002165
:103E60004FF45450FDF717F855214FF46850FDF703
:103E700012F84FF48850FDF703F8782008F08EFB15
:103E80004FF42450FCF7FCFF01F061B9FE48808834
:103E900049F2253188427DD147F6F001E520FCF753
:103EA000FAFF4FF480710120FCF7F5FF4FF4E06159
:103EB0000220FCF7F0FF41F230010320FCF7EBFF9A
:103EC00000210420FCF7E7FF40F202210820FCF764
:103ED000E2FF00210920FCF7DEFF00210A20FCF7A9
:103EE000DAFF00210C20FCF7D6FF00210D20FCF7A3
:103EF000D2FF00210F20FCF7CEFF00211020FCF79D
:103F0000CAFF07211120FCF7C6FF00211220FCF791
:103F1000C2FF00211320FCF7BEFF00210720FCF7A1
:103F2000BAFF41F290611020FCF7B5FF40F2272163
:103F30001120FCF7B0FF9D211220FCF7ACFF4FF4DD
:103F4000C8511320FCF7A7FF25212920FCF7A3FF68
:103F50000D212B20FCF79FFF07213020FCF79BFF52
:103F600040F203313120FCF796FF03213220FCF7A9
:103F700092FF40F206213520FCF78DFF0821362004
:103F8000FCF789FF40F206413720FCF784FF4FF42D
:103F9000417100E058E03820FCF77DFF072139200F
:103FA000FCF779FF40F202613C20FCF774FF082126
:103FB0003D20FCF770FF00215020FCF76CFFEF2143
:103FC0005120FCF768FF00215220FCF764FF40F20B
:103FD0003F115320FCF75FFF4FF427416020FCF7AF
:103FE0005AFF01216120FCF756FF00216A20FCF7EF
:103FF00052FF00218020FCF74EFF00218120FCF7BA
:104000004AFF00218220FCF746FF00218320FCF7B5
:1040100042FF00218420FCF73EFF00218520FCF7B1
:104020003AFF10219020FCF736FF4FF4C061922038
:10403000FCF731FF40F233110720FCF72CFF22215F
:104040000020FCF728FF1FE78F48808849F22831BD
:1040500088427DD141F28F01EC20FCF71CFF41F238
:104060003421EF20FCF717FF4FF480710120FCF79B
:1040700012FF4FF4E0610220FCF70DFF41F2300126
:104080000320FCF708FF00210420FCF704FF40F2A6
:1040900002210820FCF7FFFE00210920FCF7FBFEAF
:1040A00000210A20FCF7F7FE01210C20FCF7F3FEAB
:1040B00000210D20FCF7EFFE00210F20FCF7EBFEA6
:1040C00000211020FCF7E7FE07211120FCF7E3FE9A
:1040D00000211220FCF7DFFE00211320FCF7DBFE9D
:1040E00001210720FCF7D7FE322008F082FA41F2C6
:1040F00090411020FCF7CFFE40F227211120FCF761
:10410000CAFE322008F075FA8A211220FCF7C3FE9D
:10411000322008F06EFA4FF4D0511320FCF7BBFEAA
:1041200006212920FCF7B7FE0D212B20FCF7B3FE5A
:10413000322008F05EFA00212020FCF7ACFE0021BE
:104140002120FCF7A8FE322008F053FA002100E0FD
:1041500075E03020FCF79FFE40F204613120FCF74F
:104160009AFE40F205313220FCF795FE0021352001
:10417000FCF791FE40F609413620FCF78CFE4FF427
:1041800001713720FCF787FE40F201313820FCF73F
:1041900082FE40F207713920FCF77DFE00213C20B1
:1041A000FCF779FE40F60A213D20FCF774FE322030
:1041B00008F01FFA00215020FCF76DFEEF2151207E
:1041C000FCF769FE00215220FCF765FE40F23F112A
:1041D0005320FCF760FE4FF427416020FCF75BFEA4
:1041E00001216120FCF757FE00216A20FCF753FEF5
:1041F00000218020FCF74FFE00218120FCF74BFEC0
:1042000000218220FCF747FE00218320FCF743FEBB
:1042100000218420FCF73FFE00218520FCF73BFEB7
:1042200010219020FCF737FE4FF4C0619220FCF77C
:1042300032FE40F233110720FCF72DFE24E612482F
:10424000808849F2203188427ED100210846FCF75F
:1042500022FE4FF480710120FCF71DFE4FF4E06157
:104260000220FCF718FE41F230010320FCF713FE98
:1042700000210420FCF70FFE40F202210820FCF789
:104280000AFE0021092001E0C01C0020FCF703FE0B
:1042900000210A20FCF7FFFD01210C20FCF7FBFDAB
:1042A00000210D20FCF7F7FD00210F20FCF7F3FDA6
:1042B000322008F09EF940F201110720FCF7EBFDD7
:1042C000322008F096F94FF486511020FCF7E3FDF8
:1042D00007211120FCF7DFFD4FF488711220FCF755
:1042E000DAFD4FF430611320FCF7D5FD00212920C1
:1042F000FCF7D1FD44F210012B20FCF7CCFD00218E
:104300005020FCF7C8FDEF215120FCF7C4FD00212F
:104310005220FCF7C0FD40F23F115320FCF7BBFDDB
:104320004FF41C516020FCF7B6FD01216120FCF721
:10433000B2FD00216A20FCF7AEFD00218020FCF7D1
:10434000AAFD0021812000E030E0FCF7A4FD00215F
:104350008220FCF7A0FD00218320FCF79CFD0021BA
:104360008420FCF798FD00218520FCF794FD1021A6
:104370009020FCF790FD00219220FCF78CFD01219C
:104380009320FCF788FD4FF488719520FCF783FD9E
:1043900000219720FCF77FFD00219820FCF77BFD92
:1043A00040F273110720FCF776FD6DE5FE4880882A
:1043B00049F2313188427DD141F21401E720FCF706
:1043C0006AFD4FF480710120FCF765FD4FF4007128
:1043D0000220FCF760FD41F238010320FCF75BFD91
:1043E00040F202210820FCF756FD00210920FCF7CD
:1043F00052FD00210A20FCF74EFD00210C20FCF7A5
:104400004AFD00210D20FCF746FD00210F20FCF79E
:1044100042FD00211020FCF73EFD07211120FCF792
:104420003AFD00211220FCF736FD00211320FCF795
:1044300032FDC82008F0DDF841F290611020FCF751
:104440002AFD40F227211120FCF725FD322008F03B
:10445000D0F80C211220FCF71EFD322008F0C9F81C
:104460004FF400611320FCF716FD11212920FCF701
:1044700012FD0B212B20FCF70EFD322008F0B9F8BD
:1044800000212020FCF707FD40F23F112120FCF71E
:1044900002FD00213020FCF7FEFC4FF48371312037
:1044A000FCF7F9FC00213220FCF7F5FC4FF4017118
:1044B000352000E064E0FCF7EEFC41F20A613620B2
:1044C000FCF7E9FC40F207713720FCF7E4FC4FF4FD
:1044D00083713820FCF7DFFC40F207713920FCF7CC
:1044E000DAFC40F202413C20FCF7D5FC40F60F41DB
:1044F0003D20FCF7D0FC00215020FCF7CCFCEF2144
:104500005120FCF7C8FC00215220FCF7C4FC40F20B
:104510003F115320FCF7BFFC4FF41C516020FCF707
:10452000BAFC01216120FCF7B6FC00216A20FCF7EF
:10453000B2FC00218020FCF7AEFC00218120FCF7BA
:10454000AAFC00218220FCF7A6FC00218320FCF7B6
:10455000A2FC00218420FCF79EFC00218520FCF7B2
:104560009AFC10219020FCF796FC4FF4C061922039
:10457000FCF791FC40F233110720FCF78CFC83E43C
:104580008948808845F2084188427DD14FF4807186
:104590000120FCF780FC4FF4E0610220FCF77BFC7B
:1045A00041F230010320FCF776FC00210420FCF7E7
:1045B00072FC40F207210820FCF76DFC0021092065
:1045C000FCF769FC00210A20FCF765FC00210C20A7
:1045D000FCF761FC00210D20FCF75DFC00210F20A1
:1045E000FCF759FC142008F004F841F2B0611020E7
:1045F000FCF751FC01211120FCF74DFC0121172093
:10460000FCF749FC4FF49C711220FCF744FC4FF47A
:1046100000611320FCF73FFC09212920FCF73BFC3B
:1046200009212A20FCF737FC0021A420FCF733FCE9
:1046300000215020FCF72FFCEF215120FCF72BFC30
:1046400000215220FCF727FC40F23F115320FCF7D9
:1046500022FC4FF41C516020FCF71DFC012161205D
:10466000FCF719FC00216A20FCF715FC00218020D2
:10467000FCF711FC00218120FCF70DFC00218220B9
:10468000FCF709FC002100E024E08320FCF703FC98
:1046900000218420FCF7FFFB00218520FCF7FBFBB9
:1046A00013219020FCF7F7FB00219220FCF7F3FB8D
:1046B00003219320FCF7EFFB4FF488719520FCF762
:1046C000EAFB40F273110720FCF7E5FB322007F00C
:1046D00090FFB8E43448808841F2055188427DD18A
:1046E00000210720FCF7D7FB322007F082FF4FF4B0
:1046F0008E711220FCF7CFFB0121A420FCF7CBFB2D
:104700000F210820FCF7C7FB08210A20FCF7C3FB98
:1047100008210D20FCF7BFFB40F207713020FCF7A9
:10472000BAFB07213120FCF7B6FB40F203613220CF
:10473000FCF7B1FB4FF4E0613320FCF7ACFB40F237
:1047400002213420FCF7A7FB02213520FCF7A3FB54
:1047500041F60F713620FCF79EFB40F207713720BF
:10476000FCF799FB00213820FCF795FB002139204C
:10477000FCF791FB40F207713A20FCF78CFB00211B
:104780003B20FCF788FB07213C20FCF784FB002141
:104790003D20FCF780FB322007F02BFF0121072092
:1047A000FCF779FB012101E0C01C00201720FCF779
:1047B00072FB322007F01DFF4FF4BD511020FCF7B3
:1047C0006AFB40F217211120FCF765FB4FF48F7153
:1047D0001220FCF760FB4FF4706100E098E01320BA
:1047E000FCF759FB00212A20FCF755FB0A21292060
:1047F000FCF751FB4FF49F711220FCF74CFB00219A
:104800005020FCF748FBEF215120FCF744FB00212E
:104810005220FCF740FB40F23F115320FCF73BFBDA
:104820004FF41C516020FCF736FB01216120FCF79E
:1048300032FB00216A20FCF72EFB00218020FCF7D0
:104840002AFB00218120FCF726FB00218220FCF7B7
:1048500022FB00218320FCF71EFB00218420FCF7B3
:104860001AFB00218520FCF716FB13219020FCF792
:1048700012FB4FF440719220FCF70DFB05219320B1
:10488000FCF709FB00219520FCF705FB0021972090
:10489000FCF701FB00219820FCF7FDFA4FF4807132
:1048A0000120FCF7F8FA4FF4E0610220FCF7F3FA7C
:1048B00041F238010320FCF7EEFA00210420FCF756
:1048C000EAFA00210C20FCF7E6FA00210F20FCF7A1
:1048D000E2FA00212020FCF7DEFA00212120FCF77B
:1048E000DAFA21210720FCF7D6FA142007F081FE1E
:1048F00061210720FCF7CFFA142007F07AFE40F27E
:1049000073110720FCF7C7FA142007F072FE95E434
:10491000FE4880884BF2055188427CD10021084630
:10492000FCF7B9FA00210846FCF7B5FA0021084661
:10493000FCF7B1FA00210846FCF7ADFA0121A420EA
:10494000FCF7A9FA142007F054FE4FF41C51602024
:10495000FCF7A1FA40F202210820FCF79CFA4FF480
:1049600005713020FCF797FA43F215713120FCF7FE
:1049700092FA40F204613220FCF78DFA40F616619B
:104980003320FCF788FA42F211213420FCF783FA35
:104990004FF4A8513520FCF77EFA48F20751362033
:1049A000FCF779FA41F207413720FCF774FA41F23B
:1049B00003413820FCF76FFA20213920FCF76BFA0D
:1049C0001A219020FCF767FA00211020FCF763FA07
:1049D00007211120FCF75FFA00211220FCF75BFA97
:1049E00000211320FCF757FA142007F002FE4FF4C1
:1049F000E6611020FCF74FFA40F237111120FCF766
:104A00004AFA142007F0F5FD4FF4DC711220FCF790
:104A100042FA142000E085E007F0EBFD4FF47061EE
:104A20001320FCF738FA80212A20FCF734FA4821B9
:104A30002920FCF730FA142007F0DBFD4FF48071D9
:104A40000120FCF728FA4FF4E0610220FCF723FA7A
:104A500041F238010320FCF71EFA40F2022108203F
:104A6000FCF719FA00210A20FCF715FA00210C20A6
:104A7000FCF711FA00210D20FCF70DFA30210E2071
:104A8000FCF709FA00215020FCF705FAEF2151202C
:104A9000FCF701FA00215220FCF7FDF940F23F112A
:104AA0005320FCF7F8F94FF41C516020FCF7F3F9A0
:104AB00001216120FCF7EFF900216A20FCF7EBF9F6
:104AC00011219020FCF7E7F94FF4C0619220FCF728
:104AD000E2F940F202419320FCF7DDF90221942033
:104AE000FCF7D9F9142007F084FD01210720FCF719
:104AF000D2F9142007F07DFD61210720FCF7CBF9E6
:104B000040F273110720FCF7C6F900212020FCF7C2
:104B1000C2F900212120FCF7BEF922210020FCF778
:104B2000BAF914E3794880884CF2055188427CD167
:104B300000210846FCF7AFF900210846FCF7ABF965
:104B4000142007F056FD00210846FCF7A4F90021C7
:104B50000846FCF7A0F900210846FCF79CF9002163
:104B60000846FCF798F90121A420FCF794F91420D9
:104B700007F03FFD4FF41C516020FCF78CF940F624
:104B800006010820FCF787F940F203713020FCF79A
:104B900082F901213120FCF77EF904213220FCF753
:104BA0007AF94FF481713320FCF775F94FF44071B5
:104BB0003420FCF770F940F203113520FCF76BF953
:104BC0001F213620FCF767F940F203713720FCF70C
:104BD00062F901213820FCF75EF904213920FCF745
:104BE0005AF915219020FCF756F94FF482611020F4
:104BF000FCF751F940F247211120FCF74CF94FF432
:104C0000DE711220FCF747F94FF460611320FCF7C6
:104C100042F9782007F0EDFC4FF480710120FCF799
:104C20003AF94FF40071022000E052E0FCF733F94A
:104C300041F230010320FCF72EF908210A20FCF78D
:104C40002AF900210C20FCF726F920210E20FCF780
:104C500022F900210F20FCF71EF900212020FCF78B
:104C60001AF900212120FCF716F93D212A20FCF732
:104C700012F9142007F0BDFC2D212920FCF70BF9B7
:104C800000215020FCF707F94DF2EF015120FCF70D
:104C900002F900215220FCF7FEF840F23F115320A8
:104CA000FCF7F9F800216120FCF7F5F800216A20F3
:104CB000FCF7F1F84FF440719220FCF7ECF8052175
:104CC0009320FCF7E8F84FF480710720FCF7E3F835
:104CD0003DE20E48808848F6891188427ED1012144
:104CE0000020FCF7D8F84AF6A4010320FCF7D3F81B
:104CF00000210C20FCF7CFF840F60C010D20FCF74A
:104D0000CAF84FF42C510E2002E00000C01C002015
:104D1000FCF7C1F8B0211E20FCF7BDF842F63F3188
:104D20000120FCF7B8F84FF4C0610220FCF7B3F89B
:104D300000211020FCF7AFF846F278011120FCF7B3
:104D4000AAF800210520FCF7A6F800210620FCF7B0
:104D5000A2F84EF61C711620FCF79DF803211720CF
:104D6000FCF799F840F233210720FCF794F8002172
:104D70000B20FCF790F800210F20FCF78CF80021A5
:104D80004120FCF788F800214220FCF784F800213C
:104D90004820FCF780F840F23F114920FCF77BF8EF
:104DA00000214A20FCF777F800214B20FCF773F82C
:104DB0004FF46F414420FCF76EF800214520FCF7CA
:104DC0006AF840F23F114620FCF765F840F207719F
:104DD0003020FCF760F84FF4017100E040E0312032
:104DE000FCF759F84FF401713220FCF754F840F207
:104DF00002513320FCF74FF840F207513420FCF702
:104E00004AF84FF401713520FCF745F84FF4017171
:104E10003620FCF740F840F202513720FCF73BF80F
:104E200040F202313A20FCF736F840F202313B20E2
:104E3000FCF731F800212320FCF72DF80021242075
:104E4000FCF729F84FF400412520FCF724F8002155
:104E50004F20FCF720F800214E20FCF71CF876E1EB
:104E6000F748808844F2315188427DD101210020E9
:104E7000FCF711F80A2007F0BCFB41F22861102072
:104E8000FCF709F80E211220FCF705F840F639214D
:104E90001320FCF700F80A2007F0ABFB402111209B
:104EA000FBF7F9FF50211520FBF7F5FF0A2007F06B
:104EB000A0FB1E211220FBF7EEFF0A2007F099FB52
:104EC0004FF4B1511020FBF7E6FF42F639211320D1
:104ED000FBF7E1FF0A2007F08CFB4FF48071012003
:104EE000FBF7D9FF4FF440710220FBF7D4FF41F2EA
:104EF00038010320FBF7CFFF40F202210820FBF727
:104F0000CAFF08210A20FBF7C6FF00213020FBF76B
:104F1000C2FF40F202413120FBF7BDFF4FF4837125
:104F20003220FBF7B8FF40F203513320FBF7B3FF09
:104F30004FF482713420FBF7AEFF40F2013135208F
:104F4000FBF7A9FF40F207713620FBF7A4FF40F200
:104F500005313720FBF79FFF4FF402713820FBF734
:104F60009AFF40F60B7100E03CE03920FBF793FF1D
:104F700002214120FBF78FFF4FF41C516020FBF70B
:104F80008AFF01216120FBF786FF4FF40471902016
:104F9000FBF781FF4FF485719220FBF77CFF042122
:104FA0009320FBF778FF4FF48071A020FBF773FF8D
:104FB00001210720FBF76FFF21210720FBF76BFF83
:104FC00023210720FBF767FF33210720FBF763FF4F
:104FD00040F233110720FBF75EFF0021A020FBF712
:104FE0005AFFB4E09648808844F235518842F8D19F
:104FF00030211520FBF74FFF10219A20FBF74BFFC4
:1050000020211120FBF747FF43F228411020FBF736
:1050100042FF02211220FBF73EFF41F2380113202C
:10502000FBF739FF282007F0E4FA12210846FBF7C6
:1050300032FF282007F0DDFA43F220411020FBF771
:105040002AFF43F238011320FBF725FF462007F023
:10505000D0FA00213020FBF71EFF40F20241312040
:10506000FBF719FF40F207313220FBF714FF4FF432
:1050700041713320FBF70FFF04213420FBF70BFFB6
:1050800040F201413520FBF706FF40F20771362060
:10509000FBF701FF40F205313720FBF7FCFE4FF430
:1050A000C2613820FBF7F7FE4FF4C2613920FBF7ED
:1050B000F2FE4FF480710120FBF7EDFE4FF44071DA
:1050C0000220FBF7E8FE41F230010320FBF7E3FE8C
:1050D00040F608010820FBF7DEFE08210A20FBF756
:1050E000DAFE4FF41C516020FBF7D5FE0121612050
:1050F000FBF7D1FE4FF49F719020FBF7CCFE4FF4ED
:1051000080719220FBF7C7FE4FF480719320FBF76C
:10511000C2FE4FF44051A020FBF7BDFE1021A3209A
:10512000FBF7B9FE01210720FBF7B5FE212107207F
:10513000FBF7B1FE23210720FBF7ADFE332107204B
:10514000FBF7A9FE40F233110720FBF7A4FE002075
:10515000FCF79FFA01203B4908604FF6FF70FCF70F
:1051600045FC1FB000BD2DE9FC4F05460E46174615
:105170009846DDF82C90002001903148808846F652
:105180000401884229D12E488079012825D1AB46D7
:1051900035462B480088C01B401E86B2474628482B
:1051A0000088A0EB0B00401E1FFA80F80020244965
:1051B00088712A2048812B20888143463A4631460F
:1051C0002846CDF80090FFF7CEFF01201C498871DA
:1051D0002B2048812A2088811CE0781B401C80B24B
:1051E0000190344614E021462846FBF781FEFBF788
:1051F00062FE4FF0000A06E04846FBF744FE0AF163
:1052000001001FFA80FA01988245F5DB601C84B228
:105210004445E8DDBDE8FC8F2DE9F84F07460D4613
:1052200090469946DDF828B0A8EB0700401C80B2F4
:105230000090A9EB0500401C1FFA80FA002419E039
:10524000C01C002080812142281981B23846FBF71A
:105250004FFEFBF730FE002607E004FB0A603BF838
:105260001000FE490880701C86B200988642F4DB6C
:10527000601C84B25445E7DBBDE8F88F2DE9FF4F91
:1052800084B081468A460020039002900698A0EBE5
:1052900009050798A0EB0A06CDF80490CDF800A008
:1052A000002D01DD012705E00DB9002702E04FF0D8
:1052B000FF376D42002E02DD4FF0010806E016B9FF
:1052C0004FF0000802E04FF0FF387642B54201DDB2
:1052D0002C4600E034464FF0000B21E0009A91B2DA
:1052E000019A90B2FCF7F0F80398284403900298D2
:1052F000304402900398A04205DD0398001B039000
:105300000198384401900298A04205DD0298001BE4
:1053100002900098404400900BF101001FFA80FBBE
:10532000601C8345DADD08B0BDE8F08FF0B50446B7
:105330000D4616461F462B46324629462046FFF7A5
:105340009DFF3B46224629462046FFF797FF3B46F6
:10535000324639462046FFF791FF3B463246294602
:105360003046FFF78BFFF0BD2DE9F04306460F46B0
:105370009046002445460320A0EB48093CE07A1BF8
:1053800091B2321990B2FCF79FF83A1B91B27219A0
:1053900090B2FCF799F83A1991B2721990B2FCF7F1
:1053A00093F87A1991B2321990B2FCF78DF87A1904
:1053B00091B2321B90B2FCF787F83A1991B2721B86
:1053C00090B2FCF781F87A1B91B2321B90B2FCF7D5
:1053D0007BF83A1B91B2721B90B2FCF775F8641C13
:1053E000B9F1000F03DAA000801D814404E0601BC6
:1053F00080000A3081446D1EAC42C0DDBDE8F08300
:105400002DE9F84F05460F4690461E4600979448F2
:10541000B0F80090A8F1200000F0FF080A980028DA
:105420004ED1002449E00C2E07D108EB48008D49ED
:1054300001EB800010F804A004E08B4800EB08109A
:1054400010F804A04FF0000B31E00AF0800018B112
:105450008348A0F8009003E08448008880490880D1
:1054600039462846FCF730F84FEA4A604FEA106A9E
:10547000781C87B27E480088A84204DC7848A0F8EF
:105480000090BDE8F88F0098381AB0420BD1009F09
:10549000681C85B276480088A84203DC7048A0F8F2
:1054A0000090EEE706E00BF1010000F0FF0BBBF10E
:1054B000080FCADB00BF601CC4B2B442B3DB44E0D7
:1054C000002440E00C2E07D108EB4800654901EBB1
:1054D000800010F804A004E0634800EB081010F806
:1054E00004A04FF0000B28E00AF0800018B1394604
:1054F0002846FBF7E9FF4FEA4A604FEA106A781C3A
:1055000087B25B484088A84203DC5548A0F8009069
:10551000B7E70098381AB0420BD1009F681C85B2DB
:1055200053480088A84203DC4D48A0F80090A8E743
:1055300006E00BF1010000F0FF0BBBF1080FD3DB1D
:1055400000BF601CC4B2B442BCDB4548A0F8009068
:1055500000BF96E710B50246012000E050430B0063
:10556000A1F10104E1B2F9D110BD2DE9FF4F81B0E5
:10557000074691461E460E9D4FF0000A002439E072
:10558000301B401EC1B20A20FFF7E4FFB9FBF0F068
:105590000A21B0FBF1F201FB1208BAF1000F16D19B
:1055A000701EA04213DDB8F1000F0ED10020AB46F3
:1055B00005EBDB71491001FB0471009088B22B46AA
:1055C00020220299FFF71CFF12E04FF0010A002091
:1055D000AB4605EBDB71491001FB0471009088B20A
:1055E00008F13001CAB22B460299FFF709FF00BF4C
:1055F000601CC4B2B442C3DB05B0BDE8F08F2DE936
:10560000FF4F82B0064692461F46DDE90F48002054
:10561000019000255BE0781B401EC1B20A20FFF715
:1056200099FFBAFBF0F00A21B0FBF1F201FB12097D
:105630000198A8BB781EA84235DDB9F1000F30D122
:1056400008F08000E0B108F00100A34604EBDB7134
:10565000491001FB0561009088B20BE00008006C66
:10566000520000206C2A0108E02E0108540000209E
:10567000C01C0020234630220399FFF7C1FE0EE034
:1056800008F00100A34604EBDB71491001FB056142
:10569000009088B2234620220399FFF7B1FE14E060
:1056A00001E00120019008F00100A34604EBDB714A
:1056B000491001FB0561009088B209F13001CAB2BE
:1056C00023460399FFF79CFE00BF681CC5B2BD428C
:1056D000A1DB06B0BDE8F08F2DE9F84704460D4682
:1056E00090469946DDE9096704F0FF0A08EB0400DB
:1056F0001FFA80F809EB05001FFA80F916E044450F
:1057000002DB5446A81985B24D4500DB14E00020A9
:1057100000903A78334629462046FFF771FE30461E
:1057200006EBD07104EB61018CB27F1C38787E28C7
:1057300002DC38782028E2DA00BFBDE8F8870000F4
:1057400008B50121082007F0C7FEC020ADF8000011
:1057500010208DF8030003208DF802006946904860
:1057600007F0FEFBC0218E4807F0A7FC08BD10B56E
:105770008B48006820F0704089490860084600683E
:1057800040F0405008600120864908608649C1F811
:105790009801042006F002FF0020824908600420DE
:1057A00006F0FCFE00208049C1F8980110BD10B53C
:1057B0007B48006820F0704079490860084600681E
:1057C00040F04050086000207649091F0860764983
:1057D000C1F89C01042006F0E1FE01207149091F77
:1057E00008607149C1F89C01042006F0D7FE10BD85
:1057F00010B500246A48006820F0704068490860CD
:105800000846006840F000400860012065490860D3
:1058100006F0C4FE01206449C1F8980106F0BEFEFE
:1058200007E0601CC4B2FA2C03DDFFF7C0FF0120C3
:1058300010BD5C48803800680028F2D15949091F22
:10584000086000BFF4E710B500205649091F086042
:105850005348006820F070405149086008460068CD
:1058600040F04050086000204F49C1F89C010220E0
:1058700006F094FE01204B49091F0860022006F043
:105880008DFE00204849C1F8980110BD10B50020D8
:105890004449091F08604248006820F070404049B0
:1058A00008600846006840F04050086001203E490A
:1058B000C1F89C01022006F071FE01203949091F40
:1058C0000860022006F06AFE00203749C1F89801FE
:1058D00010BD70B504463248006820F07040304971
:1058E00008600846006840F04050086000202D49DC
:1058F000091F086000251DE0E00918B101202949B1
:10590000086002E00020274908606006040E0220BB
:1059100006F044FE01202349091F0860022006F01A
:105920003DFE00202049C1F89801022006F036FE15
:10593000681CC5B2082DDFDB70BD70B505460024BC
:105940001748006820F07040154908600846006854
:1059500040F000400860002617E000201149091FB0
:105960000860022006F01AFE01200F49C1F89801D4
:105970006006040E0B488038006808B1601CC4B291
:10598000012006F00BFE701CC6B2082EE5DB15B92F
:10599000FFF77CFF01E0FFF756FF204670BD0000D7
:1059A000000C01409C8121420080214210B5FFF78C
:1059B000C7FE10BD70B504460026FFF7D8FE254689
:1059C000E11704EB11610912A02202EB4101C8B2F8
:1059D000FFF77FFFFFF70CFFE11704EB11610912DE
:1059E000A4EB0121C8B2FFF774FFFFF701FFFFF737
:1059F000BEFEA120FFF76DFFFFF7FAFE0020FFF7C4
:105A00009CFF0646FFF7D3FE304670BD70B50446D6
:105A10000E46FFF7ACFE2546E11704EB11610912B3
:105A2000A02202EB4101C8B2FFF753FFFFF7E0FEEF
:105A3000E11704EB11610912A4EB0121C8B2FFF7D1
:105A400048FFFFF7D5FE3046FFF743FFFFF7D0FED4
:105A5000FFF7ADFE0A2006F0CCFD70BD2DE9F04148
:105A600005460E461746002409E0E20026FA02F237
:105A7000D1B22A1990B2FFF7C9FF601CC4B2BC4270
:105A8000F3DBBDE8F0812DE9F04107460C46002626
:105A9000002509E036023919491B491E88B2FFF773
:105AA00089FF0644681CC5B2A542F3DB3046BDE859
:105AB000F08110B5FF20FFF77DFF0446552C01D182
:105AC000002010BD5521FF20FFF7A0FFFF20FFF7AA
:105AD00071FF0446552C01D10020F2E70120F0E7C8
